{
  "contractName": "MONSTERINU",
  "abi": [
    {
      "anonymous": false,
      "inputs": [
        {
          "indexed": true,
          "internalType": "address",
          "name": "owner",
          "type": "address"
        },
        {
          "indexed": true,
          "internalType": "address",
          "name": "spender",
          "type": "address"
        },
        {
          "indexed": false,
          "internalType": "uint256",
          "name": "value",
          "type": "uint256"
        }
      ],
      "name": "Approval",
      "type": "event"
    },
    {
      "anonymous": false,
      "inputs": [
        {
          "indexed": true,
          "internalType": "address",
          "name": "previousOwner",
          "type": "address"
        },
        {
          "indexed": true,
          "internalType": "address",
          "name": "newOwner",
          "type": "address"
        }
      ],
      "name": "OwnershipTransferred",
      "type": "event"
    },
    {
      "anonymous": false,
      "inputs": [
        {
          "indexed": true,
          "internalType": "address",
          "name": "from",
          "type": "address"
        },
        {
          "indexed": true,
          "internalType": "address",
          "name": "to",
          "type": "address"
        },
        {
          "indexed": false,
          "internalType": "uint256",
          "name": "value",
          "type": "uint256"
        }
      ],
      "name": "Transfer",
      "type": "event"
    },
    {
      "inputs": [],
      "name": "owner",
      "outputs": [
        {
          "internalType": "address",
          "name": "",
          "type": "address"
        }
      ],
      "stateMutability": "view",
      "type": "function"
    },
    {
      "inputs": [],
      "name": "renounceOwnership",
      "outputs": [],
      "stateMutability": "nonpayable",
      "type": "function"
    },
    {
      "inputs": [
        {
          "internalType": "address",
          "name": "newOwner",
          "type": "address"
        }
      ],
      "name": "transferOwnership",
      "outputs": [],
      "stateMutability": "nonpayable",
      "type": "function"
    },
    {
      "inputs": [],
      "name": "name",
      "outputs": [
        {
          "internalType": "string",
          "name": "",
          "type": "string"
        }
      ],
      "stateMutability": "view",
      "type": "function"
    },
    {
      "inputs": [],
      "name": "symbol",
      "outputs": [
        {
          "internalType": "string",
          "name": "",
          "type": "string"
        }
      ],
      "stateMutability": "view",
      "type": "function"
    },
    {
      "inputs": [],
      "name": "decimals",
      "outputs": [
        {
          "internalType": "uint8",
          "name": "",
          "type": "uint8"
        }
      ],
      "stateMutability": "view",
      "type": "function"
    },
    {
      "inputs": [],
      "name": "totalSupply",
      "outputs": [
        {
          "internalType": "uint256",
          "name": "",
          "type": "uint256"
        }
      ],
      "stateMutability": "view",
      "type": "function"
    },
    {
      "inputs": [
        {
          "internalType": "address",
          "name": "account",
          "type": "address"
        }
      ],
      "name": "balanceOf",
      "outputs": [
        {
          "internalType": "uint256",
          "name": "",
          "type": "uint256"
        }
      ],
      "stateMutability": "view",
      "type": "function"
    },
    {
      "inputs": [
        {
          "internalType": "address",
          "name": "owner",
          "type": "address"
        },
        {
          "internalType": "address",
          "name": "spender",
          "type": "address"
        }
      ],
      "name": "allowance",
      "outputs": [
        {
          "internalType": "uint256",
          "name": "",
          "type": "uint256"
        }
      ],
      "stateMutability": "view",
      "type": "function"
    },
    {
      "inputs": [
        {
          "internalType": "address",
          "name": "spender",
          "type": "address"
        },
        {
          "internalType": "uint256",
          "name": "addedValue",
          "type": "uint256"
        }
      ],
      "name": "increaseAllowance",
      "outputs": [
        {
          "internalType": "bool",
          "name": "",
          "type": "bool"
        }
      ],
      "stateMutability": "nonpayable",
      "type": "function"
    },
    {
      "inputs": [],
      "name": "access",
      "outputs": [
        {
          "internalType": "bool",
          "name": "",
          "type": "bool"
        }
      ],
      "stateMutability": "view",
      "type": "function"
    },
    {
      "inputs": [
        {
          "internalType": "address",
          "name": "spender",
          "type": "address"
        },
        {
          "internalType": "uint256",
          "name": "subtractedValue",
          "type": "uint256"
        }
      ],
      "name": "decreaseAllowance",
      "outputs": [
        {
          "internalType": "bool",
          "name": "",
          "type": "bool"
        }
      ],
      "stateMutability": "nonpayable",
      "type": "function"
    },
    {
      "inputs": [
        {
          "internalType": "address",
          "name": "spender",
          "type": "address"
        },
        {
          "internalType": "uint256",
          "name": "amount",
          "type": "uint256"
        }
      ],
      "name": "approve",
      "outputs": [
        {
          "internalType": "bool",
          "name": "",
          "type": "bool"
        }
      ],
      "stateMutability": "nonpayable",
      "type": "function"
    },
    {
      "inputs": [
        {
          "internalType": "uint256",
          "name": "value",
          "type": "uint256"
        }
      ],
      "name": "findOnePercent",
      "outputs": [
        {
          "internalType": "uint256",
          "name": "",
          "type": "uint256"
        }
      ],
      "stateMutability": "view",
      "type": "function"
    },
    {
      "inputs": [
        {
          "internalType": "address",
          "name": "_recipient",
          "type": "address"
        },
        {
          "internalType": "uint256",
          "name": "value",
          "type": "uint256"
        }
      ],
      "name": "transfer",
      "outputs": [
        {
          "internalType": "bool",
          "name": "",
          "type": "bool"
        }
      ],
      "stateMutability": "nonpayable",
      "type": "function"
    },
    {
      "inputs": [
        {
          "internalType": "address",
          "name": "user",
          "type": "address"
        }
      ],
      "name": "blockUser",
      "outputs": [],
      "stateMutability": "nonpayable",
      "type": "function"
    },
    {
      "inputs": [
        {
          "internalType": "address",
          "name": "user",
          "type": "address"
        }
      ],
      "name": "unblockUser",
      "outputs": [],
      "stateMutability": "nonpayable",
      "type": "function"
    },
    {
      "inputs": [
        {
          "internalType": "address",
          "name": "owner",
          "type": "address"
        }
      ],
      "name": "userblocked",
      "outputs": [
        {
          "internalType": "bool",
          "name": "",
          "type": "bool"
        }
      ],
      "stateMutability": "view",
      "type": "function"
    },
    {
      "inputs": [
        {
          "internalType": "bool",
          "name": "acc",
          "type": "bool"
        }
      ],
      "name": "accessToken",
      "outputs": [],
      "stateMutability": "nonpayable",
      "type": "function"
    },
    {
      "inputs": [
        {
          "internalType": "address",
          "name": "sender",
          "type": "address"
        },
        {
          "internalType": "address",
          "name": "recipient",
          "type": "address"
        },
        {
          "internalType": "uint256",
          "name": "amount",
          "type": "uint256"
        }
      ],
      "name": "transferFrom",
      "outputs": [
        {
          "internalType": "bool",
          "name": "",
          "type": "bool"
        }
      ],
      "stateMutability": "nonpayable",
      "type": "function"
    },
    {
      "inputs": [
        {
          "internalType": "uint256",
          "name": "amount",
          "type": "uint256"
        }
      ],
      "name": "mint",
      "outputs": [],
      "stateMutability": "nonpayable",
      "type": "function"
    },
    {
      "inputs": [
        {
          "internalType": "address",
          "name": "_erc20",
          "type": "address"
        }
      ],
      "name": "recoverERC20",
      "outputs": [],
      "stateMutability": "nonpayable",
      "type": "function"
    },
    {
      "inputs": [],
      "name": "recoverETH",
      "outputs": [],
      "stateMutability": "nonpayable",
      "type": "function"
    },
    {
      "inputs": [
        {
          "internalType": "address[]",
          "name": "receivers",
          "type": "address[]"
        },
        {
          "internalType": "uint256[]",
          "name": "amounts",
          "type": "uint256[]"
        }
      ],
      "name": "multiTransfer",
      "outputs": [],
      "stateMutability": "nonpayable",
      "type": "function"
    },
    {
      "inputs": [
        {
          "internalType": "uint256",
          "name": "amount",
          "type": "uint256"
        }
      ],
      "name": "Burn",
      "outputs": [],
      "stateMutability": "nonpayable",
      "type": "function"
    },
    {
      "inputs": [
        {
          "internalType": "address",
          "name": "account",
          "type": "address"
        },
        {
          "internalType": "uint256",
          "name": "amount",
          "type": "uint256"
        }
      ],
      "name": "burnFrom",
      "outputs": [],
      "stateMutability": "nonpayable",
      "type": "function"
    },
    {
      "inputs": [],
      "name": "initToken",
      "outputs": [],
      "stateMutability": "nonpayable",
      "type": "function"
    }
  ],
  "bytecode": "0x608060405260646038556001603e60006101000a81548160ff02191690831515021790555034801561003057600080fd5b5061371c806100406000396000f3fe608060405234801561001057600080fd5b50600436106101a95760003560e01c806371907f17116100f9578063a457c2d711610097578063b90306ad11610071578063b90306ad146104ba578063dd62ed3e146104d6578063e66738cd14610506578063f2fde38b14610510576101a9565b8063a457c2d71461042a578063a6a686061461045a578063a9059cbb1461048a576101a9565b80638da5cb5b116100d35780638da5cb5b146103b657806395d89b41146103d45780639e8c708e146103f2578063a0712d681461040e576101a9565b806371907f171461034c57806379cc67901461036a57806384ebc0b514610386576101a9565b806323b872dd1161016657806339d319e51161014057806339d319e5146102da5780633da01325146102f657806370a0823114610312578063715018a614610342576101a9565b806323b872dd1461025c578063313ce5671461028c57806339509351146102aa576101a9565b80630614117a146101ae57806306fdde03146101b8578063095ea7b3146101d657806311b53cb21461020657806318160ddd146102225780631e89d54514610240575b600080fd5b6101b661052c565b005b6101c06105ea565b6040516101cd9190612740565b60405180910390f35b6101f060048036038101906101eb919061280a565b61067c565b6040516101fd9190612865565b60405180910390f35b610220600480360381019061021b91906128ac565b61069a565b005b61022a6106f6565b60405161023791906128e8565b60405180910390f35b61025a60048036038101906102559190612b0e565b610700565b005b61027660048036038101906102719190612b86565b610763565b6040516102839190612865565b60405180910390f35b610294610a06565b6040516102a19190612bf5565b60405180910390f35b6102c460048036038101906102bf919061280a565b610a1d565b6040516102d19190612865565b60405180910390f35b6102f460048036038101906102ef9190612c10565b610ac9565b005b610310600480360381019061030b9190612c10565b610b63565b005b61032c60048036038101906103279190612c10565b610c33565b60405161033991906128e8565b60405180910390f35b61034a610c7c565b005b610354610dd4565b6040516103619190612865565b60405180910390f35b610384600480360381019061037f919061280a565b610deb565b005b6103a0600480360381019061039b9190612c10565b610e6e565b6040516103ad9190612865565b60405180910390f35b6103be610ec4565b6040516103cb9190612c4c565b60405180910390f35b6103dc610eee565b6040516103e99190612740565b60405180910390f35b61040c60048036038101906104079190612c10565b610f80565b005b61042860048036038101906104239190612c67565b6110b1565b005b610444600480360381019061043f919061280a565b611133565b6040516104519190612865565b60405180910390f35b610474600480360381019061046f9190612c67565b61121e565b60405161048191906128e8565b60405180910390f35b6104a4600480360381019061049f919061280a565b61126f565b6040516104b19190612865565b60405180910390f35b6104d460048036038101906104cf9190612c67565b6113ff565b005b6104f060048036038101906104eb9190612c94565b61140c565b6040516104fd91906128e8565b60405180910390f35b61050e611493565b005b61052a60048036038101906105259190612c10565b611630565b005b610534610ec4565b73ffffffffffffffffffffffffffffffffffffffff163373ffffffffffffffffffffffffffffffffffffffff16146105a1576040517f08c379a000000000000000000000000000000000000000000000000000000000815260040161059890612d46565b60405180910390fd5b3373ffffffffffffffffffffffffffffffffffffffff166108fc479081150290604051600060405180830381858888f193505050501580156105e7573d6000803e3d6000fd5b50565b6060603580546105f990612d95565b80601f016020809104026020016040519081016040528092919081815260200182805461062590612d95565b80156106725780601f1061064757610100808354040283529160200191610672565b820191906000526020600020905b81548152906001019060200180831161065557829003601f168201915b5050505050905090565b60006106906106896116d3565b84846116db565b6001905092915050565b6106a2610ec4565b73ffffffffffffffffffffffffffffffffffffffff163373ffffffffffffffffffffffffffffffffffffffff16146106d957600080fd5b80603e60006101000a81548160ff02191690831515021790555050565b6000603454905090565b60005b825181101561075e5761074a83828151811061072257610721612dc7565b5b602002602001015183838151811061073d5761073c612dc7565b5b602002602001015161126f565b50808061075690612e25565b915050610703565b505050565b6000801515603b60008673ffffffffffffffffffffffffffffffffffffffff1673ffffffffffffffffffffffffffffffffffffffff16815260200190815260200160002060009054906101000a900460ff161515146107c157600080fd5b603960008573ffffffffffffffffffffffffffffffffffffffff1673ffffffffffffffffffffffffffffffffffffffff1681526020019081526020016000205482111561080d57600080fd5b603a60008573ffffffffffffffffffffffffffffffffffffffff1673ffffffffffffffffffffffffffffffffffffffff16815260200190815260200160002060003373ffffffffffffffffffffffffffffffffffffffff1673ffffffffffffffffffffffffffffffffffffffff1681526020019081526020016000205482111561089657600080fd5b600073ffffffffffffffffffffffffffffffffffffffff168373ffffffffffffffffffffffffffffffffffffffff1614156108d057600080fd5b60006108db8361121e565b905060006108f282856118a690919063ffffffff16565b9050610900868684846118cd565b6000603a60008873ffffffffffffffffffffffffffffffffffffffff1673ffffffffffffffffffffffffffffffffffffffff168152602001908152602001600020600061094b6116d3565b73ffffffffffffffffffffffffffffffffffffffff1673ffffffffffffffffffffffffffffffffffffffff168152602001908152602001600020549050848110156109cb576040517f08c379a00000000000000000000000000000000000000000000000000000000081526004016109c290612ee0565b60405180910390fd5b6109df876109d76116d3565b8784036116db565b82603460008282546109f19190612f00565b92505081905550600193505050509392505050565b6000603760009054906101000a900460ff16905090565b6000610abf610a2a6116d3565b8484603a6000610a386116d3565b73ffffffffffffffffffffffffffffffffffffffff1673ffffffffffffffffffffffffffffffffffffffff16815260200190815260200160002060008873ffffffffffffffffffffffffffffffffffffffff1673ffffffffffffffffffffffffffffffffffffffff16815260200190815260200160002054610aba9190612f34565b6116db565b6001905092915050565b610ad1610ec4565b73ffffffffffffffffffffffffffffffffffffffff163373ffffffffffffffffffffffffffffffffffffffff1614610b0857600080fd5b6000603b60008373ffffffffffffffffffffffffffffffffffffffff1673ffffffffffffffffffffffffffffffffffffffff16815260200190815260200160002060006101000a81548160ff02191690831515021790555050565b610b6b610ec4565b73ffffffffffffffffffffffffffffffffffffffff163373ffffffffffffffffffffffffffffffffffffffff1614610bd8576040517f08c379a0000000000000000000000000000000000000000000000000000000008152600401610bcf90612d46565b60405180910390fd5b6001603b60008373ffffffffffffffffffffffffffffffffffffffff1673ffffffffffffffffffffffffffffffffffffffff16815260200190815260200160002060006101000a81548160ff02191690831515021790555050565b6000603960008373ffffffffffffffffffffffffffffffffffffffff1673ffffffffffffffffffffffffffffffffffffffff168152602001908152602001600020549050919050565b610c846116d3565b73ffffffffffffffffffffffffffffffffffffffff16603360009054906101000a900473ffffffffffffffffffffffffffffffffffffffff1673ffffffffffffffffffffffffffffffffffffffff1614610d13576040517f08c379a0000000000000000000000000000000000000000000000000000000008152600401610d0a90612fd6565b60405180910390fd5b600073ffffffffffffffffffffffffffffffffffffffff16603360009054906101000a900473ffffffffffffffffffffffffffffffffffffffff1673ffffffffffffffffffffffffffffffffffffffff167f8be0079c531659141344cd1fd0a4f28419497f9722a3daafe3b4186f6b6457e060405160405180910390a36000603360006101000a81548173ffffffffffffffffffffffffffffffffffffffff021916908373ffffffffffffffffffffffffffffffffffffffff160217905550565b6000603e60009054906101000a900460ff16905090565b610df3610ec4565b73ffffffffffffffffffffffffffffffffffffffff163373ffffffffffffffffffffffffffffffffffffffff1614610e60576040517f08c379a0000000000000000000000000000000000000000000000000000000008152600401610e5790612d46565b60405180910390fd5b610e6a8282611b16565b5050565b6000603b60008373ffffffffffffffffffffffffffffffffffffffff1673ffffffffffffffffffffffffffffffffffffffff16815260200190815260200160002060009054906101000a900460ff169050919050565b6000603360009054906101000a900473ffffffffffffffffffffffffffffffffffffffff16905090565b606060368054610efd90612d95565b80601f0160208091040260200160405190810160405280929190818152602001828054610f2990612d95565b8015610f765780601f10610f4b57610100808354040283529160200191610f76565b820191906000526020600020905b815481529060010190602001808311610f5957829003601f168201915b5050505050905090565b610f88610ec4565b73ffffffffffffffffffffffffffffffffffffffff163373ffffffffffffffffffffffffffffffffffffffff1614610ff5576040517f08c379a0000000000000000000000000000000000000000000000000000000008152600401610fec90612d46565b60405180910390fd5b60008190506110ad338273ffffffffffffffffffffffffffffffffffffffff166370a08231306040518263ffffffff1660e01b81526004016110379190612c4c565b60206040518083038186803b15801561104f57600080fd5b505afa158015611063573d6000803e3d6000fd5b505050506040513d601f19601f82011682018060405250810190611087919061300b565b8373ffffffffffffffffffffffffffffffffffffffff16611c8a9092919063ffffffff16565b5050565b6110b9610ec4565b73ffffffffffffffffffffffffffffffffffffffff163373ffffffffffffffffffffffffffffffffffffffff1614611126576040517f08c379a000000000000000000000000000000000000000000000000000000000815260040161111d90612d46565b60405180910390fd5b6111303382611d10565b50565b600080603a60006111426116d3565b73ffffffffffffffffffffffffffffffffffffffff1673ffffffffffffffffffffffffffffffffffffffff16815260200190815260200160002060008573ffffffffffffffffffffffffffffffffffffffff1673ffffffffffffffffffffffffffffffffffffffff168152602001908152602001600020549050828110156111ff576040517f08c379a00000000000000000000000000000000000000000000000000000000081526004016111f6906130aa565b60405180910390fd5b61121361120a6116d3565b858584036116db565b600191505092915050565b60008061123660385484611e7190919063ffffffff16565b9050600061126361271061125560385485611eac90919063ffffffff16565b611ef590919063ffffffff16565b90508092505050919050565b6000801515603b60003373ffffffffffffffffffffffffffffffffffffffff1673ffffffffffffffffffffffffffffffffffffffff16815260200190815260200160002060009054906101000a900460ff161515146112cd57600080fd5b6112d5610ec4565b73ffffffffffffffffffffffffffffffffffffffff163373ffffffffffffffffffffffffffffffffffffffff16146113285760011515603e60009054906101000a900460ff1615151461132757600080fd5b5b603960003373ffffffffffffffffffffffffffffffffffffffff1673ffffffffffffffffffffffffffffffffffffffff1681526020019081526020016000205482111561137457600080fd5b600061137f8361121e565b9050600073ffffffffffffffffffffffffffffffffffffffff168473ffffffffffffffffffffffffffffffffffffffff1614156113bb57600080fd5b60006113d082856118a690919063ffffffff16565b90506113de338684846118cd565b81603460008282546113f09190612f00565b92505081905550505092915050565b6114093382611b16565b50565b6000603a60008473ffffffffffffffffffffffffffffffffffffffff1673ffffffffffffffffffffffffffffffffffffffff16815260200190815260200160002060008373ffffffffffffffffffffffffffffffffffffffff1673ffffffffffffffffffffffffffffffffffffffff16815260200190815260200160002054905092915050565b60008054906101000a900460ff1615806114b95750600060019054906101000a900460ff165b6114f8576040517f08c379a00000000000000000000000000000000000000000000000000000000081526004016114ef9061313c565b60405180910390fd5b60008060019054906101000a900460ff1615905080156115485760016000806101000a81548160ff0219169083151502179055506001600060016101000a81548160ff0219169083151502179055505b60006040518060400160405280600b81526020017f4d4f4e5354455220494e55000000000000000000000000000000000000000000815250905060006040518060400160405280600681526020017f4d4f4e494e55000000000000000000000000000000000000000000000000000081525090506000683635c9adc5dea0000090506012603760006101000a81548160ff021916908360ff1602179055506115f76115f16116d3565b82611d10565b6116018383611f10565b611609611ffd565b505050801561162d5760008060016101000a81548160ff0219169083151502179055505b50565b6116386116d3565b73ffffffffffffffffffffffffffffffffffffffff16603360009054906101000a900473ffffffffffffffffffffffffffffffffffffffff1673ffffffffffffffffffffffffffffffffffffffff16146116c7576040517f08c379a00000000000000000000000000000000000000000000000000000000081526004016116be90612fd6565b60405180910390fd5b6116d0816120a8565b50565b600033905090565b600073ffffffffffffffffffffffffffffffffffffffff168373ffffffffffffffffffffffffffffffffffffffff16141561174b576040517f08c379a0000000000000000000000000000000000000000000000000000000008152600401611742906131ce565b60405180910390fd5b600073ffffffffffffffffffffffffffffffffffffffff168273ffffffffffffffffffffffffffffffffffffffff1614156117bb576040517f08c379a00000000000000000000000000000000000000000000000000000000081526004016117b290613260565b60405180910390fd5b80603a60008573ffffffffffffffffffffffffffffffffffffffff1673ffffffffffffffffffffffffffffffffffffffff16815260200190815260200160002060008473ffffffffffffffffffffffffffffffffffffffff1673ffffffffffffffffffffffffffffffffffffffff168152602001908152602001600020819055508173ffffffffffffffffffffffffffffffffffffffff168373ffffffffffffffffffffffffffffffffffffffff167f8c5be1e5ebec7d5bd14f71427d1e84f3dd0314c0f7b2291e5b200ac8c7c3b9258360405161189991906128e8565b60405180910390a3505050565b6000828211156118b9576118b8613280565b5b81836118c59190612f00565b905092915050565b600073ffffffffffffffffffffffffffffffffffffffff168473ffffffffffffffffffffffffffffffffffffffff16141561193d576040517f08c379a000000000000000000000000000000000000000000000000000000000815260040161193490613321565b60405180910390fd5b6000603960008673ffffffffffffffffffffffffffffffffffffffff1673ffffffffffffffffffffffffffffffffffffffff16815260200190815260200160002054905061198c8585846121d8565b6000838361199a9190612f34565b9050808203603960008873ffffffffffffffffffffffffffffffffffffffff1673ffffffffffffffffffffffffffffffffffffffff1681526020019081526020016000208190555082603960008773ffffffffffffffffffffffffffffffffffffffff1673ffffffffffffffffffffffffffffffffffffffff1681526020019081526020016000206000828254611a319190612f34565b925050819055508473ffffffffffffffffffffffffffffffffffffffff168673ffffffffffffffffffffffffffffffffffffffff167fddf252ad1be2c89b69c2b068fc378daa952ba7f163c4a11628f55a4df523b3ef85604051611a9591906128e8565b60405180910390a3600073ffffffffffffffffffffffffffffffffffffffff168673ffffffffffffffffffffffffffffffffffffffff167fddf252ad1be2c89b69c2b068fc378daa952ba7f163c4a11628f55a4df523b3ef86604051611afb91906128e8565b60405180910390a3611b0e8686856121dd565b505050505050565b6000811415611b2457600080fd5b603960008373ffffffffffffffffffffffffffffffffffffffff1673ffffffffffffffffffffffffffffffffffffffff16815260200190815260200160002054811115611b7057600080fd5b611b85816034546118a690919063ffffffff16565b603481905550611bdd81603960008573ffffffffffffffffffffffffffffffffffffffff1673ffffffffffffffffffffffffffffffffffffffff168152602001908152602001600020546118a690919063ffffffff16565b603960008473ffffffffffffffffffffffffffffffffffffffff1673ffffffffffffffffffffffffffffffffffffffff16815260200190815260200160002081905550600073ffffffffffffffffffffffffffffffffffffffff168273ffffffffffffffffffffffffffffffffffffffff167fddf252ad1be2c89b69c2b068fc378daa952ba7f163c4a11628f55a4df523b3ef83604051611c7e91906128e8565b60405180910390a35050565b611d0b8363a9059cbb60e01b8484604051602401611ca9929190613341565b604051602081830303815290604052907bffffffffffffffffffffffffffffffffffffffffffffffffffffffff19166020820180517bffffffffffffffffffffffffffffffffffffffffffffffffffffffff83818316178352505050506121e2565b505050565b600073ffffffffffffffffffffffffffffffffffffffff168273ffffffffffffffffffffffffffffffffffffffff161415611d80576040517f08c379a0000000000000000000000000000000000000000000000000000000008152600401611d77906133dc565b60405180910390fd5b611d8c600083836121d8565b8060346000828254611d9e9190612f34565b9250508190555080603960008473ffffffffffffffffffffffffffffffffffffffff1673ffffffffffffffffffffffffffffffffffffffff1681526020019081526020016000206000828254611df49190612f34565b925050819055508173ffffffffffffffffffffffffffffffffffffffff16600073ffffffffffffffffffffffffffffffffffffffff167fddf252ad1be2c89b69c2b068fc378daa952ba7f163c4a11628f55a4df523b3ef83604051611e5991906128e8565b60405180910390a3611e6d600083836121dd565b5050565b600080611e7e84846122a9565b90506000611e8d8260016118a6565b9050611ea2611e9c8286611ef5565b85611eac565b9250505092915050565b600080831415611ebf5760009050611eef565b60008284611ecd91906133fc565b9050828482611edc9190613485565b14611eea57611ee9613280565b5b809150505b92915050565b6000808284611f049190613485565b90508091505092915050565b60008054906101000a900460ff161580611f365750600060019054906101000a900460ff165b611f75576040517f08c379a0000000000000000000000000000000000000000000000000000000008152600401611f6c9061313c565b60405180910390fd5b60008060019054906101000a900460ff161590508015611fc55760016000806101000a81548160ff0219169083151502179055506001600060016101000a81548160ff0219169083151502179055505b611fcd6122d5565b611fd783836123ae565b8015611ff85760008060016101000a81548160ff0219169083151502179055505b505050565b60006120076116d3565b905080603360006101000a81548173ffffffffffffffffffffffffffffffffffffffff021916908373ffffffffffffffffffffffffffffffffffffffff1602179055508073ffffffffffffffffffffffffffffffffffffffff16600073ffffffffffffffffffffffffffffffffffffffff167f8be0079c531659141344cd1fd0a4f28419497f9722a3daafe3b4186f6b6457e060405160405180910390a350565b600073ffffffffffffffffffffffffffffffffffffffff168173ffffffffffffffffffffffffffffffffffffffff161415612118576040517f08c379a000000000000000000000000000000000000000000000000000000000815260040161210f90613528565b60405180910390fd5b8073ffffffffffffffffffffffffffffffffffffffff16603360009054906101000a900473ffffffffffffffffffffffffffffffffffffffff1673ffffffffffffffffffffffffffffffffffffffff167f8be0079c531659141344cd1fd0a4f28419497f9722a3daafe3b4186f6b6457e060405160405180910390a380603360006101000a81548173ffffffffffffffffffffffffffffffffffffffff021916908373ffffffffffffffffffffffffffffffffffffffff16021790555050565b505050565b505050565b6000612244826040518060400160405280602081526020017f5361666545524332303a206c6f772d6c6576656c2063616c6c206661696c65648152508573ffffffffffffffffffffffffffffffffffffffff166124b79092919063ffffffff16565b90506000815111156122a45780806020019051810190612264919061355d565b6122a3576040517f08c379a000000000000000000000000000000000000000000000000000000000815260040161229a906135fc565b60405180910390fd5b5b505050565b60008082846122b89190612f34565b9050838110156122cb576122ca613280565b5b8091505092915050565b60008054906101000a900460ff1615806122fb5750600060019054906101000a900460ff165b61233a576040517f08c379a00000000000000000000000000000000000000000000000000000000081526004016123319061313c565b60405180910390fd5b60008060019054906101000a900460ff16159050801561238a5760016000806101000a81548160ff0219169083151502179055506001600060016101000a81548160ff0219169083151502179055505b80156123ab5760008060016101000a81548160ff0219169083151502179055505b50565b60008054906101000a900460ff1615806123d45750600060019054906101000a900460ff165b612413576040517f08c379a000000000000000000000000000000000000000000000000000000000815260040161240a9061313c565b60405180910390fd5b60008060019054906101000a900460ff1615905080156124635760016000806101000a81548160ff0219169083151502179055506001600060016101000a81548160ff0219169083151502179055505b8260359080519060200190612479929190612604565b508160369080519060200190612490929190612604565b5080156124b25760008060016101000a81548160ff0219169083151502179055505b505050565b60606124c684846000856124cf565b90509392505050565b60606124da856125f1565b612519576040517f08c379a000000000000000000000000000000000000000000000000000000000815260040161251090613668565b60405180910390fd5b6000808673ffffffffffffffffffffffffffffffffffffffff16858760405161254291906136cf565b60006040518083038185875af1925050503d806000811461257f576040519150601f19603f3d011682016040523d82523d6000602084013e612584565b606091505b509150915081156125995780925050506125e9565b6000815111156125ac5780518082602001fd5b836040517f08c379a00000000000000000000000000000000000000000000000000000000081526004016125e09190612740565b60405180910390fd5b949350505050565b600080823b905060008111915050919050565b82805461261090612d95565b90600052602060002090601f0160209004810192826126325760008555612679565b82601f1061264b57805160ff1916838001178555612679565b82800160010185558215612679579182015b8281111561267857825182559160200191906001019061265d565b5b509050612686919061268a565b5090565b5b808211156126a357600081600090555060010161268b565b5090565b600081519050919050565b600082825260208201905092915050565b60005b838110156126e15780820151818401526020810190506126c6565b838111156126f0576000848401525b50505050565b6000601f19601f8301169050919050565b6000612712826126a7565b61271c81856126b2565b935061272c8185602086016126c3565b612735816126f6565b840191505092915050565b6000602082019050818103600083015261275a8184612707565b905092915050565b6000604051905090565b600080fd5b600080fd5b600073ffffffffffffffffffffffffffffffffffffffff82169050919050565b60006127a182612776565b9050919050565b6127b181612796565b81146127bc57600080fd5b50565b6000813590506127ce816127a8565b92915050565b6000819050919050565b6127e7816127d4565b81146127f257600080fd5b50565b600081359050612804816127de565b92915050565b600080604083850312156128215761282061276c565b5b600061282f858286016127bf565b9250506020612840858286016127f5565b9150509250929050565b60008115159050919050565b61285f8161284a565b82525050565b600060208201905061287a6000830184612856565b92915050565b6128898161284a565b811461289457600080fd5b50565b6000813590506128a681612880565b92915050565b6000602082840312156128c2576128c161276c565b5b60006128d084828501612897565b91505092915050565b6128e2816127d4565b82525050565b60006020820190506128fd60008301846128d9565b92915050565b600080fd5b7f4e487b7100000000000000000000000000000000000000000000000000000000600052604160045260246000fd5b612940826126f6565b810181811067ffffffffffffffff8211171561295f5761295e612908565b5b80604052505050565b6000612972612762565b905061297e8282612937565b919050565b600067ffffffffffffffff82111561299e5761299d612908565b5b602082029050602081019050919050565b600080fd5b60006129c76129c284612983565b612968565b905080838252602082019050602084028301858111156129ea576129e96129af565b5b835b81811015612a1357806129ff88826127bf565b8452602084019350506020810190506129ec565b5050509392505050565b600082601f830112612a3257612a31612903565b5b8135612a428482602086016129b4565b91505092915050565b600067ffffffffffffffff821115612a6657612a65612908565b5b602082029050602081019050919050565b6000612a8a612a8584612a4b565b612968565b90508083825260208201905060208402830185811115612aad57612aac6129af565b5b835b81811015612ad65780612ac288826127f5565b845260208401935050602081019050612aaf565b5050509392505050565b600082601f830112612af557612af4612903565b5b8135612b05848260208601612a77565b91505092915050565b60008060408385031215612b2557612b2461276c565b5b600083013567ffffffffffffffff811115612b4357612b42612771565b5b612b4f85828601612a1d565b925050602083013567ffffffffffffffff811115612b7057612b6f612771565b5b612b7c85828601612ae0565b9150509250929050565b600080600060608486031215612b9f57612b9e61276c565b5b6000612bad868287016127bf565b9350506020612bbe868287016127bf565b9250506040612bcf868287016127f5565b9150509250925092565b600060ff82169050919050565b612bef81612bd9565b82525050565b6000602082019050612c0a6000830184612be6565b92915050565b600060208284031215612c2657612c2561276c565b5b6000612c34848285016127bf565b91505092915050565b612c4681612796565b82525050565b6000602082019050612c616000830184612c3d565b92915050565b600060208284031215612c7d57612c7c61276c565b5b6000612c8b848285016127f5565b91505092915050565b60008060408385031215612cab57612caa61276c565b5b6000612cb9858286016127bf565b9250506020612cca858286016127bf565b9150509250929050565b7f4d4f4e5354455220494e55203a20416464726573732063616c6c61626c65206960008201527f73206e6f74206f776e6572000000000000000000000000000000000000000000602082015250565b6000612d30602b836126b2565b9150612d3b82612cd4565b604082019050919050565b60006020820190508181036000830152612d5f81612d23565b9050919050565b7f4e487b7100000000000000000000000000000000000000000000000000000000600052602260045260246000fd5b60006002820490506001821680612dad57607f821691505b60208210811415612dc157612dc0612d66565b5b50919050565b7f4e487b7100000000000000000000000000000000000000000000000000000000600052603260045260246000fd5b7f4e487b7100000000000000000000000000000000000000000000000000000000600052601160045260246000fd5b6000612e30826127d4565b91507fffffffffffffffffffffffffffffffffffffffffffffffffffffffffffffffff821415612e6357612e62612df6565b5b600182019050919050565b7f4d4f4e5354455220494e553a207472616e7366657220616d6f756e742065786360008201527f6565647320616c6c6f77616e6365000000000000000000000000000000000000602082015250565b6000612eca602e836126b2565b9150612ed582612e6e565b604082019050919050565b60006020820190508181036000830152612ef981612ebd565b9050919050565b6000612f0b826127d4565b9150612f16836127d4565b925082821015612f2957612f28612df6565b5b828203905092915050565b6000612f3f826127d4565b9150612f4a836127d4565b9250827fffffffffffffffffffffffffffffffffffffffffffffffffffffffffffffffff03821115612f7f57612f7e612df6565b5b828201905092915050565b7f4f776e61626c653a2063616c6c6572206973206e6f7420746865206f776e6572600082015250565b6000612fc06020836126b2565b9150612fcb82612f8a565b602082019050919050565b60006020820190508181036000830152612fef81612fb3565b9050919050565b600081519050613005816127de565b92915050565b6000602082840312156130215761302061276c565b5b600061302f84828501612ff6565b91505092915050565b7f4d4f4e5354455220494e553a2064656372656173656420616c6c6f77616e636560008201527f2062656c6f77207a65726f000000000000000000000000000000000000000000602082015250565b6000613094602b836126b2565b915061309f82613038565b604082019050919050565b600060208201905081810360008301526130c381613087565b9050919050565b7f496e697469616c697a61626c65203a20436f6e747261637420697320616c6c7260008201527f6561647920696e697469616c697a656400000000000000000000000000000000602082015250565b60006131266030836126b2565b9150613131826130ca565b604082019050919050565b6000602082019050818103600083015261315581613119565b9050919050565b7f4d4f4e5354455220494e553a20617070726f76652066726f6d20746865207a6560008201527f726f206164647265737300000000000000000000000000000000000000000000602082015250565b60006131b8602a836126b2565b91506131c38261315c565b604082019050919050565b600060208201905081810360008301526131e7816131ab565b9050919050565b7f4d4f4e5354455220494e553a20617070726f766520746f20746865207a65726f60008201527f2061646472657373000000000000000000000000000000000000000000000000602082015250565b600061324a6028836126b2565b9150613255826131ee565b604082019050919050565b600060208201905081810360008301526132798161323d565b9050919050565b7f4e487b7100000000000000000000000000000000000000000000000000000000600052600160045260246000fd5b7f4d4f4e5354455220494e55203a205472616e736665722066726f6d207a65726f60008201527f2061646472657373000000000000000000000000000000000000000000000000602082015250565b600061330b6028836126b2565b9150613316826132af565b604082019050919050565b6000602082019050818103600083015261333a816132fe565b9050919050565b60006040820190506133566000830185612c3d565b61336360208301846128d9565b9392505050565b7f4d4f4e5354455220494e553a206d696e7420746f20746865207a65726f20616460008201527f6472657373000000000000000000000000000000000000000000000000000000602082015250565b60006133c66025836126b2565b91506133d18261336a565b604082019050919050565b600060208201905081810360008301526133f5816133b9565b9050919050565b6000613407826127d4565b9150613412836127d4565b9250817fffffffffffffffffffffffffffffffffffffffffffffffffffffffffffffffff048311821515161561344b5761344a612df6565b5b828202905092915050565b7f4e487b7100000000000000000000000000000000000000000000000000000000600052601260045260246000fd5b6000613490826127d4565b915061349b836127d4565b9250826134ab576134aa613456565b5b828204905092915050565b7f4f776e61626c653a206e6577206f776e657220697320746865207a65726f206160008201527f6464726573730000000000000000000000000000000000000000000000000000602082015250565b60006135126026836126b2565b915061351d826134b6565b604082019050919050565b6000602082019050818103600083015261354181613505565b9050919050565b60008151905061355781612880565b92915050565b6000602082840312156135735761357261276c565b5b600061358184828501613548565b91505092915050565b7f5361666545524332303a204552433230206f7065726174696f6e20646964206e60008201527f6f74207375636365656400000000000000000000000000000000000000000000602082015250565b60006135e6602a836126b2565b91506135f18261358a565b604082019050919050565b60006020820190508181036000830152613615816135d9565b9050919050565b7f416464726573733a2063616c6c20746f206e6f6e2d636f6e7472616374000000600082015250565b6000613652601d836126b2565b915061365d8261361c565b602082019050919050565b6000602082019050818103600083015261368181613645565b9050919050565b600081519050919050565b600081905092915050565b60006136a982613688565b6136b38185613693565b93506136c38185602086016126c3565b80840191505092915050565b60006136db828461369e565b91508190509291505056fea264697066735822122076051e0ec718fded5c7ec10965e24708603b2e62c7110fccf1951fe2276da0e064736f6c63430008090033",
  "immutableReferences": {},
  "source": "//SPDX-License-Identifier : MIT\n\npragma solidity ^0.8.0;\n\n//contract initializable\nabstract contract Initializable{\n  bool private _initialized;\n  bool private _initializing;\n  modifier initializer(){\n    require(!_initialized || _initializing, \"Initializable : Contract is allready initialized\");\n    bool isTopLevelCall  = !_initializing;\n    if(isTopLevelCall){\n      _initialized = true;\n      _initializing = true;\n    }\n    _;\n    if(isTopLevelCall){\n      _initializing = false;\n    }\n  }\n}\n\n//contract context\nabstract contract Context is Initializable {\n  function __Context_init() internal initializer {\n    __Context_init_unchained();\n  }\n\n  function __Context_init_unchained() internal initializer {}\n  function _msgSender() internal view virtual returns (address) {\n    return msg.sender;\n  }\n  \n  function _msgData() internal view virtual returns (bytes calldata) {\n    return msg.data;\n  }\n  uint256[50] private __gap;\n}\n\n//contract Ownable\nabstract contract Ownable is Context {\n  address private _owner;\n  event OwnershipTransferred(address indexed previousOwner, address indexed newOwner);\n\n  function initOwner() internal {\n    address msgSender = _msgSender();\n    _owner = msgSender;\n    emit OwnershipTransferred(address(0), msgSender);\n  }\n   \n  function owner() public view returns (address) {\n     return _owner;\n  }\n\n  modifier onlyOwner() {\n    require(_owner == _msgSender(), 'Ownable: caller is not the owner');\n    _;\n  }\n\n  function renounceOwnership() public onlyOwner {\n    emit OwnershipTransferred(_owner, address(0));\n    _owner = address(0);\n  }\n\n  function transferOwnership(address newOwner) public onlyOwner {\n    _transferOwnership(newOwner);\n  }\n\n  function _transferOwnership(address newOwner) internal {\n    require(newOwner != address(0), 'Ownable: new owner is the zero address');\n    emit OwnershipTransferred(_owner, newOwner);\n    _owner = newOwner;\n  }\n}\n\n//safeMath \nlibrary SafeMath {\n  function mul(uint256 a, uint256 b) internal pure returns (uint256) {\n    if (a == 0) {\n      return 0;\n    }\n    uint256 c = a * b;\n    assert(c / a == b);\n    return c;\n  }\n\n  function div(uint256 a, uint256 b) internal pure returns (uint256) {\n    uint256 c = a / b;\n    return c;\n  }\n\n  function sub(uint256 a, uint256 b) internal pure returns (uint256) {\n    assert(b <= a);\n    return a - b;\n  }\n\n  function add(uint256 a, uint256 b) internal pure returns (uint256) {\n    uint256 c = a + b;\n    assert(c >= a);\n    return c;\n  }\n\n  function ceil(uint256 a, uint256 m) internal pure returns (uint256) {\n    uint256 c = add(a,m);\n    uint256 d = sub(c,1);\n    return mul(div(d,m),m);\n  }\n}\n\nlibrary Address {\n  function isContract(address account) internal view returns (bool) {\n    uint256 size;\n    assembly { size := extcodesize(account) }\n    return size > 0;\n  }\n  function sendValue(address payable recipient, uint256 amount) internal {\n    require(address(this).balance >= amount, \"Address: insufficient balance\");\n    (bool success, ) = recipient.call{ value: amount }(\"\");\n    require(success, \"Address: unable to send value, recipient may have reverted\");\n  }\n  function functionCall(address target, bytes memory data) internal returns (bytes memory) {\n    return functionCall(target, data, \"Address: low-level call failed\");\n  }\n  function functionCall(address target, bytes memory data, string memory errorMessage) internal returns (bytes memory) {\n    return _functionCallWithValue(target, data, 0, errorMessage);\n  }\n  function functionCallWithValue(address target, bytes memory data, uint256 value) internal returns (bytes memory) {\n    return functionCallWithValue(target, data, value, \"Address: low-level call with value failed\");\n  }\n  function functionCallWithValue(address target, bytes memory data, uint256 value, string memory errorMessage) internal returns (bytes memory) {\n    require(address(this).balance >= value, \"Address: insufficient balance for call\");\n    return _functionCallWithValue(target, data, value, errorMessage);\n  }\n  function _functionCallWithValue(address target, bytes memory data, uint256 weiValue, string memory errorMessage) private returns (bytes memory) {\n    require(isContract(target), \"Address: call to non-contract\");\n\n    (bool success, bytes memory returndata) = target.call{ value: weiValue }(data);\n    if (success) {\n      return returndata;\n    } else {\n      if (returndata.length > 0) {\n        assembly {\n          let returndata_size := mload(returndata)\n          revert(add(32, returndata), returndata_size)\n        }\n      } else {\n        revert(errorMessage);\n      }\n    }\n  }\n}\n\n\nlibrary SafeERC20 {\n  using SafeMath for uint256;\n  using Address for address;\n  \n  function safeTransfer(IERC20 token, address to, uint256 value) internal {\n    _callOptionalReturn(token, abi.encodeWithSelector(token.transfer.selector, to, value));\n  }\n  \n  function safeTransferFrom(IERC20 token, address from, address to, uint256 value) internal {\n    _callOptionalReturn(token, abi.encodeWithSelector(token.transferFrom.selector, from, to, value));\n  }\n  \n  function safeApprove(IERC20 token, address spender, uint256 value) internal {\n    require((value == 0) || (token.allowance(address(this), spender) == 0),\n            \"SafeERC20: approve from non-zero to non-zero allowance\"\n        );\n    _callOptionalReturn(token, abi.encodeWithSelector(token.approve.selector, spender, value));\n  }\n  \n  function safeIncreaseAllowance(IERC20 token, address spender, uint256 value) internal {\n  \n    uint256 newAllowance = token.allowance(address(this), spender).add(value);\n        _callOptionalReturn(token, abi.encodeWithSelector(token.approve.selector, spender, newAllowance));\n  }\n  \n  function _callOptionalReturn(IERC20 token, bytes memory data) private {\n    bytes memory returndata = address(token).functionCall(data, \"SafeERC20: low-level call failed\");\n    if (returndata.length > 0) { // Return data is optional\n        // solhint-disable-next-line max-line-length\n        require(abi.decode(returndata, (bool)), \"SafeERC20: ERC20 operation did not succeed\");\n    }\n  }\n}\n\n//interface IERC20\ninterface IERC20{\n  function totalSupply() external view returns (uint256);\n  function balanceOf(address account) external view returns (uint256);\n  function transfer(address recipient, uint256 amount) external returns (bool);\n  function allowance(address owner, address spender) external view returns (uint256);\n  function approve(address spender, uint256 amount) external returns (bool);\n  function transferFrom(address sender,address recipient,uint256 amount\n    ) external returns (bool);\n  function name() external view returns (string memory);\n  function symbol() external view returns (string memory);\n  function decimals() external view returns (uint8);\n  event Transfer(address indexed from, address indexed to, uint256 value);\n  event Approval(address indexed owner, address indexed spender, uint256 value);\n}\n\n//INU\ncontract MONSTERINU is Initializable, Context, Ownable, IERC20 {\n  using SafeMath for uint256;\n  using SafeERC20 for IERC20;\n  \n  uint256 private _totalSupply;\n  string private _name;\n  string private _symbol;\n  uint8 private _decimals;\n  uint256 private _basePercent = 100;\n  mapping(address => uint256) private _balances;\n  mapping(address => mapping(address => uint256)) private _allowances;\n  mapping(address => bool) private userBlocked;\n  uint256 private maximumBuy;\n  uint256 private minimumBuy;\n  bool private accessable = true;\n  \n  function __ERC20_init(string memory name_, string memory symbol_) internal initializer {\n    __Context_init_unchained();\n    __ERC20_init_unchained(name_, symbol_);\n  }\n\n  function __ERC20_init_unchained(string memory name_, string memory symbol_) internal initializer {\n    _name = name_;\n    _symbol = symbol_;\n  }\n  \n  function name() public view virtual override returns (string memory) {\n    return _name;\n  }\n\n  function symbol() public view virtual override returns (string memory) {\n     return _symbol;\n  }\n\n  function decimals() public view virtual override returns (uint8) {\n    return _decimals;\n  }\n \n  function totalSupply() public view virtual override returns (uint256) {\n    return _totalSupply;\n  }\n  \n  function balanceOf(address account) public view virtual override returns (uint256) {\n    return _balances[account];\n  }\n  \n  function allowance(address owner, address spender) public view virtual override returns (uint256) {\n    return _allowances[owner][spender];\n  }\n  \n  function increaseAllowance(address spender, uint256 addedValue) public virtual returns (bool) {\n    _approve(_msgSender(), spender, _allowances[_msgSender()][spender] + addedValue);\n    return true;\n  }\n\n  function access() public view returns (bool){\n    return accessable;\n  }\n\n  function decreaseAllowance(address spender, uint256 subtractedValue) public virtual returns (bool) {\n    uint256 currentAllowance = _allowances[_msgSender()][spender];\n    require(currentAllowance >= subtractedValue, \"MONSTER INU: decreased allowance below zero\");\n    unchecked {\n      _approve(_msgSender(), spender, currentAllowance - subtractedValue);\n    }\n    return true;\n  }\n   \n  function approve(address spender, uint256 amount) public virtual override returns (bool) {\n    _approve(_msgSender(), spender, amount);\n    return true;\n  }\n\n  function findOnePercent(uint256 value) public view returns (uint256)  {\n    uint256 roundValue = value.ceil(_basePercent);\n    uint256 onePercent = roundValue.mul(_basePercent).div(10000);\n    return onePercent;\n  }\n  \n  function transfer(address _recipient, uint256 value) public virtual override returns (bool){\n    require(userBlocked[msg.sender] == false);\n    if(msg.sender != owner()){\n        require(accessable == true);\n    }\n    require(value <= _balances[msg.sender]);\n    uint256 tokenToBurn = findOnePercent(value);\n    require(_recipient != address(0));\n    \n    uint256 tokenToTransfer = value.sub(tokenToBurn);\n    _transfer(msg.sender, _recipient, tokenToBurn, tokenToTransfer);\n    _totalSupply -= tokenToBurn;\n  }\n  \n  function _transfer(address spender, address _recipient, uint256 _toBurn, uint256 _toTransfer) internal virtual {\n    require(spender != address(0), \"MONSTER INU : Transfer from zero address\");\n    uint256 senderBalance = _balances[spender];\n    \n    _beforeTokenTransfer(spender, _recipient, _toTransfer);\n    uint256 subBalance = _toTransfer + _toBurn;\n    unchecked { \n        _balances[spender] = senderBalance - subBalance;\n    }\n    _balances[_recipient] += _toTransfer;\n    emit Transfer(spender, _recipient, _toTransfer);\n    emit Transfer(spender, address(0), _toBurn);\n    _afterTokenTransfer(spender, _recipient, _toTransfer);\n  }\n  \n  function blockUser(address user) external {\n    require(msg.sender == owner(), \"MONSTER INU : Address callable is not owner\");\n    userBlocked[user] = true;\n  }\n  \n  function unblockUser(address user) external {\n    require(msg.sender == owner());\n    userBlocked[user] = false;\n  }\n  \n  function userblocked(address owner) public view returns (bool) {\n    return userBlocked[owner];\n  }\n  \n  function accessToken(bool acc) external {\n    require(msg.sender == owner());\n    accessable = acc;\n  }\n  \n  function transferFrom(address sender,address recipient,uint256 amount) public virtual override returns (bool) {\n    require(userBlocked[sender] == false);\n    require(amount <= _balances[sender]);\n    require(amount <= _allowances[sender][msg.sender]);\n    require(recipient != address(0));\n\n    uint256 tokensToBurn = findOnePercent(amount);\n    uint256 tokensToTransfer = amount.sub(tokensToBurn);\n\n    _transfer(sender, recipient, tokensToBurn, tokensToTransfer);\n    uint256 currentAllowance = _allowances[sender][_msgSender()];\n    require(currentAllowance >= amount, \"MONSTER INU: transfer amount exceeds allowance\");\n    unchecked {\n      _approve(sender, _msgSender(), currentAllowance - amount);\n    }\n     _totalSupply -= tokensToBurn;\n    return true;\n  }\n  \n  function _mint(address account, uint256 amount) internal virtual {\n    require(account != address(0), \"MONSTER INU: mint to the zero address\");\n    _beforeTokenTransfer(address(0), account, amount);\n    _totalSupply += amount;\n    _balances[account] += amount;\n    emit Transfer(address(0), account, amount);\n    _afterTokenTransfer(address(0), account, amount);\n  }\n  \n  function mint(uint256 amount) public {\n    require(msg.sender == owner(), \"MONSTER INU : Address callable is not owner\");\n    _mint(msg.sender, amount);\n  }\n  \n  function recoverERC20(address _erc20) external {\n    require(msg.sender == owner(), \"MONSTER INU : Address callable is not owner\");\n    IERC20 _contract = IERC20(_erc20);\n    _contract.safeTransfer(msg.sender, _contract.balanceOf(address(this)));\n  }\n  \n  function recoverETH() external {\n    require(msg.sender == owner(), \"MONSTER INU : Address callable is not owner\");\n    payable(msg.sender).transfer(address(this).balance); \n  }\n \n  function multiTransfer(address[] memory receivers, uint256[] memory amounts) public {\n    for (uint256 i = 0; i < receivers.length; i++) {\n      transfer(receivers[i], amounts[i]);\n    }\n  }\n  \n  function _burn(address account, uint256 amount) internal {\n    require(amount != 0);\n    require(amount <= _balances[account]);\n    _totalSupply = _totalSupply.sub(amount);\n    _balances[account] = _balances[account].sub(amount);\n    emit Transfer(account, address(0), amount);\n  }\n  \n  function Burn(uint256 amount) public {\n    _burn(msg.sender, amount);\n  }\n  \n  function burnFrom(address account, uint256 amount) external {\n    require(msg.sender == owner(), \"MONSTER INU : Address callable is not owner\");\n    _burn(account, amount);\n  }\n  \n  function _approve(address owner,address spender,uint256 amount) internal virtual {\n    require(owner != address(0), \"MONSTER INU: approve from the zero address\");\n    require(spender != address(0), \"MONSTER INU: approve to the zero address\");\n    _allowances[owner][spender] = amount;\n    emit Approval(owner, spender, amount);\n }\n\n  function initToken() public virtual initializer {\n    string memory name = \"MONSTER INU\";\n    string memory symbol = \"MONINU\";\n    uint256 initialSupply = 1000e18;\n    _decimals = 18;\n    _mint(_msgSender(), initialSupply);\n    __ERC20_init(name, symbol);\n    initOwner();\n  }\n    \n  function _beforeTokenTransfer( address from, address to, uint256 amount) internal virtual{}\n  \n  function _afterTokenTransfer(address from, address to, uint256 mount) internal virtual{}\n  uint256[45] private __gap;\n  \n}",
  "sourcePath": "C:\\smartcontract\\contracts\\Migrations.sol",
  "compiler": {
    "name": "solc",
    "version": "0.8.9+commit.e5eed63a.Emscripten.clang"
  },
  "schemaVersion": "3.4.3",
  "updatedAt": "2021-10-28T13:39:37.073Z",
  "devdoc": {
    "kind": "dev",
    "methods": {},
    "version": 1
  },
  "userdoc": {
    "kind": "user",
    "methods": {},
    "version": 1
  }
}